:020000020000FC
:020048008DC069
:10000000C7E6D0E0C093C400D093C500C0E9C09358
:10001000C1004DE344B945B940E047B940E94AB9A8
:100020005F985C9830E120E030E00E94620020E0C0
:0200300030E0BE
:1000C0000000FECF203011F423E039C0213011F4BC
:1000D0002FE935C0223011F425E231C0233011F46C
:1000E0002DE02DC0243011F429E929C0253011F468
:1000F00029E425C0263011F421E421C0273011F471
:100100002FE11DC0283011F421E019C0293011F46D
:1001100029E015C02A3011F421E111C02B3011F46F
:1001200021EC0DC02C3011F423E609C02D3011F460
:1001300025E805C02E3011F421E601C021E70E9418
:10014000A700232F0E94A7005C9A5C98089548E0BE
:100150005F98269510F0289801C0289A5F9A4A95D2
:10016000B9F70895203021F42091C600203041F0E5
:100170003091C600303021F00E94620020E030E073
:020180001895D0
:00000001FF
