:020000020000FC
:02004800AAC04C
:10000000C7E6D0E0C093C400D093C500C0E9C09358
:10001000C1004DE344B945B940E047B940E94AB9A8
:100020005F985C9830E120E030E00E947F0020E0A3
:0A00300030E050E060E070E080E096
:1000C0004230F1F72FE0252330E10E947F0020EF3E
:1000D0002523269526952695269530E20E947F00B9
:1000E0002FE0262330E40E947F0020EF2623269570
:1000F00026952695269530E80E947F00E3CF203094
:1001000011F423E039C0213011F42FE935C0223039
:1001100011F425E231C0233011F42DE02DC024303C
:1001200011F429E929C0253011F429E425C026302D
:1001300011F421E421C0273011F42FE11DC0283033
:1001400011F421E019C0293011F429E015C02A303A
:1001500011F421E111C02B3011F421EC0DC02C3031
:1001600011F423E609C02D3011F425E805C02E3026
:1001700011F421E601C021E70E94C400232F0E9450
:10018000C4005C9A5C98089548E05F98269510F04A
:10019000289801C0289A5F9A4A95B9F70895209146
:1001A000C600213080FF51F481E0423039F02091C7
:0E01B000C600520F671F339509F4439518954A
:00000001FF
