:020000020000FC
:10000000C7E6D0E0C093C400D093C500C8E0C09359
:10001000C1004DE344B945B940E047B940E94AB9A8
:100020005F985C9830E120E030EF0E948200E0E0D1
:10003000F1E00DE710EC26E833ED40E050E00E94DF
:10004000780051FFFCCF00E010E030E040E00024F9
:1000500072910E94D2003395D9F7439541FFF8CFB2
:100060000000FECF020F101D439541FFF1CF70E15C
:100070000E94D2007FE070230E94D20070E20E94B2
:10008000D20070EF702376957695769576950E94DE
:10009000D20070E40E94D2007FE071230E94D2005F
:1000A00070E80E94D20070EF712376957695769570
:1000B00076950E94D2002FE0202330E10E9482003A
:1000C00020EF2023269526952695269530E20E943E
:1000D00082002FE0212330E40E94820020EF2123C0
:1000E000269526952695269530E80E948200BFCF5A
:1000F000019F021F030B0317E8F70193439509F4CF
:1001000053950895203011F423E039C0213011F4C3
:100110002FE935C0223011F425E231C0233011F42B
:100120002DE02DC0243011F429E929C0253011F427
:1001300029E425C0263011F421E421C0273011F430
:100140002FE11DC0283011F421E019C0293011F42D
:1001500029E015C02A3011F421E111C02B3011F42F
:1001600021EC0DC02C3011F423E609C02D3011F420
:1001700025E805C02E3011F421E601C021E70E94D8
:10018000C700232F0E94C7005C9A5C98089548E03E
:100190005F98269510F0289801C0289A5F9A4A9592
:1001A000B9F708956091C00065FFFCCF7093C60059
:0201B0000895B0
:00000001FF
