:020000020000FC
:10000000C7E6D0E0C093C400D093C500C8E1C09358
:10001000C1004DE344B945B940E047B940E94AB9A8
:100020005F985C9830E12FE030EF0E945700E0E0ED
:10003000F1E004E610EC26E833ED40E050E00E94E9
:100040004D0051FFFCCF00E010E030E040E0002424
:100050002291020F101D3395D9F7439541FFF8CF38
:100060002FE0202330E10E94570020EF2023269527
:1000700026952695269530E20E9457002FE02123F1
:1000800030E40E94570020EF2123269526952695DF
:10009000269530E80E945700E3CF019F021F030B13
:1000A0000317E8F70193439509F453950895203019
:1000B00011F423E039C0213011F42FE935C022308A
:1000C00011F425E231C0233011F42DE02DC024308D
:1000D00011F429E929C0253011F429E425C026307E
:1000E00011F421E421C0273011F42FE11DC0283084
:1000F00011F421E019C0293011F429E015C02A308B
:1001000011F421E111C02B3011F421EC0DC02C3081
:1001100011F423E609C02D3011F425E805C02E3076
:1001200011F421E601C021E70E949C00232F0E94C8
:100130009C005C9A5C98089548E05F98269510F0C2
:10014000289801C0289A5F9A4A95B9F70895609156
:0C015000C00065FFFCCF7093C60008954E
:00000001FF
